:020000020000FC
:1040000000C00091780005FD68C0F092800608E1CC
:10401000009393060FEF0A950023E9F700918806B5
:1040200003FFECC0E0E0F0E0079116910F3F19F4B8
:104030001F3F09F4E3C051C03091CF0137FDFCCFE1
:104040003BB72BBFF8012091CA0113E21093CA01BC
:104050000A01E8952093CA013BBF08953BB72BBFE7
:10406000F8012091CA014093CA013DE93093340020
:10407000E8952093CA013BBF089520E02D9301509D
:104080001040E1F7089525912D9301501040D9F784
:1040900008958EE39FE4FC0105911491FC01329692
:1040A000A591B491FC01349625913491422F432B74
:1040B00019F0F901E8DF01C0E0DF06961FE48A3459
:1040C000910748F3089501E70DBF00E20EBFC4E277
:1040D000D6E20E9449200E940A23F09293060091A2
:1040E0000020109101200A3A154511F00C940000AF
:1040F000F0920020F092012000E200937800F6CFC9
:104100007B2F0A2ED80106C0F90161919F016D93A2
:1041100041505040642F652BB9F7A02DB72F08955B
:10412000AA84998488847F806E805D804C80BB8166
:10413000AA8199818881F0E0EC0FFD1FEF010895BD
:10414000AA929A928A927A926A925A924A92BA93CE
:10415000AA939A938A930895AF93BF93D80101903D
:104160000D9241505040D9F7BF91AF9108954091C1
:10417000CA01E22FF32F0093CA0104914093CA01B0
:10418000089540E04BBFF80158ED54BF20830895D7
:10419000000F111F4A95E2F70895169507954A9565
:0441A000E2F70895A5
:1041F4000C94CA250C94D32664CF6091CF0167FD3B
:10420400FCCF642F652B51F0F8016491F90161939F
:104214009F010F5F1F4F41505040F3CF0895B901E4
:1042240098018B01EACF0E94A020229739012A012C
:10423400A62ED801912F80E006C02091CF0127FD42
:10424400FCCF45E227D1042D052909F442C0882476
:104254000FD107FDFDCF00E8902EAA2059F0FC01F4
:1042640005911491088319830F3F1F4F31F088245F
:10427400839403C00FEF08830983042D0529A1F05B
:10428400A817B90739F429D0088301E0401A00E0DF
:10429400500A51F0FC013196AE17BF0729F40FEF15
:1042A400400E501E1AD00983488159818C0120E0A8
:1042B40030E00E941C2002969A9479F68C011A959B
:1042C400882009F0BACF2091CF0127FDFCCF44E22A
:1042D400B9CF2296EBE00C9490201196F301019152
:1042E4003F01089561E09FCFB901EFECF1E0208137
:1042F40027FDFDCFECEC208128602083105F98011E
:104304008B0197D0ECECF1E00081077F00830895E6
:10431400B90198018B01E8CFEFECF1E0008107FDD2
:10432400FDCF008101FF02C006E367D10895DAD210
:10433400C801B22FA091CA01EFDFEFECF1E00081D8
:1043440007FDFDCF0BD09093C1018093C001B093C2
:10435400C40105E352D1A093CA016BC303E30093E4
:10436400CA0100E00093C20108958A938091CA01B2
:104374000093CA0121E00BEC11E044D18093CA01FF
:10438400899108951091CF0117FDFCCF10E2019F90
:10439400E8DF1092C1010092C00105E3E6CF40912D
:1043A400CA012091CF0127FDFCCF23E32093CA014A
:1043B40020E02093C2012093C10130E020E2309339
:1043C400C001F80151918F015093C40133952A958E
:1043D400B1F74093CA0108950E94A520C80129019C
:1043E400DA010DC08201DBDF45E08C010E94CF20A1
:1043F400C9DF809600E2400E00E0501E90970A2F1D
:104404000B2B79F0082F0F7121F4A03200E0B007D4
:1044140048F7F20121912F018C0189DF0196119750
:10442400EECFE6E00C949520D7CF62E770E2260F3A
:10443400371F0C94802068EE70E2F9CF9A938A9328
:10444400802F9091CA0168DF13D007FDFDCF86DF6E
:104454000093C10110E000E21093C0018093C401F5
:1044640013950A95C9F79093CA0189919991089572
:104474000091CF010895FCDF07FDFDCF40E200E08D
:1044840010E008D00FEFDADFF3DF07FDFDCF00E324
:104494006CDF46C220E030E00C942E20F894E0E07B
:1044A400F0E20AEA15E50083118320917900216086
:1044B40009E710E0A7D0FFCF0FBF08950FB7F89416
:1044C40010E41093CA0410E21093CA04E1ECF4E07F
:1044D400108111601083E9EC108112601083E8EC04
:1044E400108110641083E9EC108111601083E8ECF2
:1044F400108110681083E0CF2AE107D00093FA04FA
:104504002BE103D00093FB0408957ED00F3F09F400
:104514000FE10895D1CF4FB7F8941095F0E0E02F54
:10452400E059FF4F008101230083042FF3CF8A93C6
:1045340000E00093600010E4EEDF23E004E410E008
:1045440061D0E4D40064008301E0009360008FB77D
:10455400F89410E002E028E0129FF001EC50FF4DC7
:1045640020E0258313950A95B1F7C6DF0091C004B6
:104574000093C004CBD400680083008100610083F1
:1045840008EF10E2E6EC00831183E0EC7BD40FEF3C
:104594000583E8EC008101600083082F8DDFF0CEF5
:1045A4008BCF24E001E410E02DD02DE12DD0009339
:1045B40062002CE129D0009363000FB7F894E0E582
:1045C400F0E0108112601083EBDFE1E5008101FF70
:1045D400FDCF21E000E410E015D0E6E5F0E0008135
:1045E400097F008300E807870BEB008B00810460E0
:1045F4000083E0E60081016089CE0093CA0121E0D6
:104604000BEC11E00C94C12030E002E00C94B720D4
:1046140027E402EA10E0F6DFC4DF789488DF4EDF97
:10462400FFCFE0EFF0E200E0028301E010E000835E
:104634001183089500910C210F770093C30408950A
:104644001ED2068F178F20A331A3089518D2208D70
:10465400018D0A9529F00A9599F00A95B9F01DC0C3
:104664002091D22030E002ED10E2D1D008D216D34E
:1046740020A131A10217130710F400A311A350C104
:10468400E0ECF0E2228133818F01EFCF222329F481
:1046940024E030E004EE10E2E8CF77C075D006A73E
:1046A40002E002AB00E004A305A302A303A3089560
:1046B40000E00093EE20A3D0009190000093E82046
:1046C400009191000093E920009192000093EA2068
:1046D400009193000093EB200091D00101FB16F0B0
:1046E40001E001C000E01AC14CD00F7141F528D09F
:1046F40007FF13C0112329F0165041F0125039F06E
:104704001EC022E030E000EF10E205C09FCF21E0A0
:1047140030E002EF10E27BD003C1155019F01450C1
:1047240031F00DC00CE113E202A313A3F5CF79DF3E
:10473400A6D1008D0093F220002371F3B9CF25C0D8
:1047440010910B219CD1068908951ED000A301A3CA
:1047540002A303A304A305A3068907FF03C09ED2F3
:10476400012B71F00ED0007619F4BEDF002339F46A
:1047740008D00F71013021F40AD0002309F0D0C011
:1047840004C000910A2108957AD100E00895BA93F3
:10479400AA93F7DF0076003271F5D2DF07FF10C06D
:1047A400125041F01A9529F526E030E002E211E2B8
:1047B4002ED01DC0ACEEB0E223D0D9F009951CC0B8
:1047C4001A9521F01350A9F41AD011C00091EE20CB
:1047D400002329F000E512E202A313A308C020E499
:1047E40030E003E311E213D00BEC14E2CED001E08D
:1047F40003C00FE038D000E0A991B99108954ECFDD
:10480400ED91FC9100E0E030F00708952AD118CF33
:10481400033041F0023031F0043021F0053011F062
:1048240011E001C010E01093302112E0019FF0016B
:10483400E356FF4D4081F1810AE111E2E42F48E0A3
:1048440050E00C94AC20E3E3F1E20281002351F444
:104854000381013118F008E006D097CFD9DF94DF47
:1048640004AB05AB5DC0009322210AE0009326212E
:10487400089538D0A4EFB0E2FD0106A917A9012BD1
:1048840039F400E01CEF06AB17AB80E094E00BC0FA
:10489400FD0186A997A9082F092B19F1943010F06E
:1048A40080E094E01ED1AC01DAD062A5F3A5E62F36
:1048B4000995D7D007C0FD0124A935A92F5F3F4F23
:1048C40024AB35AB9C010197232B11F3F801219103
:1048D4008F012F3F81F305E00093222106E315E2C7
:1048E40026D0A7C00C94A7201DD019F02AD011F40B
:1048F40023D04BCFBEDF14C015D019F022D011F451
:104904001BD043CF0091EF2014AD012319F009EA25
:1049140014E202C00EE115E20AD002C00093EF20B7
:1049240001E0089505E311E262D000230895E8EE62
:10493400F0E204831583089503E006A70AE002ABBE
:1049440008959DD022A533A520303040089503E07A
:104954000093222102E00093262117CF0091EF203B
:1049640010913021012309F0F2CF89D024A535A577
:104974002030304011F4E0DF02C0D4DF09F405CF69
:10498400B7D004E415E201D0CBCF79D004A315A3AA
:10499400089535DF00E0E8EEF0E204830583E3E305
:1049A400F1E210810181003021E0120709F4D6CF31
:1049B400003023E0120709F49FCF0130120709F4F5
:1049C40093CF003024E0120731F455DD002300E0DA
:1049D40009F40895A3CF0330120721F401E00093F2
:1049E400EE2008950330164009F42DCFCECE7ADFA1
:1049F400F80150810181402FA8E2B1E20D935C934C
:104A0400D5979281038120E0FD0106A017A020A480
:104A140031A4001591052205230520F008E08DDF5F
:104A240000E007C0041B802F950B019686AB97AB63
:104A340001E0E4E00C949720BA93AA93A4EFB0E2C7
:104A4400FD0146A957A90BD09A96ED91FC919B972D
:104A54000995FD0126A937A9D9DE01E0CDCE24A907
:104A640035A904E711E208950AD024A905A9009301
:104A740074212093752122E030E0C8DE51CFE4EFA9
:104A8400F0E208959A938A93FADF04A915A9202FD6
:104A94002F7380E094E0821B904046A957A94817E1
:104AA400590708F0AC01622F70E024E731E2260FC9
:104AB400371F64A5F5A5E62F0995E1DF06A917A917
:104AC4008017910720F000E004A305A308C004A9FF
:104AD40015A9080F191F04AB15AB03D009D001E0C9
:104AE400C4CC06A917A9081B190B06AB17AB08956C
:104AF40020E034E0B6DF8BCE9D01E8EC08D20F7DD8
:104B0400008300810F7D0083E7D002E00593A2E0DB
:104B1400B1E200E010E00D930C93539600E206938B
:104B240000E406936DD0069300E406931D931D9351
:104B34001D931C9315971D931C9311AFD9010895D0
:104B440028EF30E212E0019F1EE1012210E007FB92
:104B540000E000F9000D43E00E94CA20020F131F79
:104B640008952051304041F02051304039F0205216
:104B7400304031F050E405C051E403C052E401C0B8
:104B840053E44BD100E0018306E000835183089590
:104B940032D10091CB0407FF02C000E827C09CD1AA
:104BA400002329F5EBECB3D104FF17C000E1ABD12E
:104BB40038DD00E00093C30420E430E010E0D1DFEE
:104BC40020E430E010E000E8CCDF04E715E20093D5
:104BD400FC201093FD2061D00AC0008106FF02C0B2
:104BE40000E404C0008105FF02C000E28CD1F3D0D0
:104BF400189504E00093312103D002E00693089550
:104C0400E8EFF0E20895BA93AA93A6E1B1E2F8DDE1
:104C140009F00995F1CDBED0033011F43DD03BC06D
:104C2400B5D080A191A1801B910B282F292BD1F401
:104C34009FD034D00217130719F006AD002311F0EA
:104C4400D8DF29C004A115A120E00030120789F0A3
:104C5400F8010995002369F0FD0100E002AF03AFFC
:104C640080A191A1803400E0900718F080E490E0E6
:104C740001C001E000933221FD0186879787068DEC
:104C8400178D22AD33AD020F131F008B118B8901D9
:104C940078D022D0B2DFCDCEB6DF2ECF048D158DE5
:104CA400089505E000933121E1E0F1E204E0059389
:104CB400E9EFF0E204E0059308951B2F2A2FDFDECD
:104CC400DF01DD9603E00C9300E00687078704D03C
:104CD40094DFA22FB12F0895E0E0F1E208955AD0B5
:104CE400043011F4D9DF43C0FD018681978162ADA0
:104CF40073AD00A111A19B01280F391F02171307DF
:104D040018F4C801861B970BAC0124E735E2068D25
:104D1400178D060F171F8DDB39D033D080349040A8
:104D240031F42AD0448D558D2417350750F000A353
:104D340011A3949665DD19F00995002381F0BDDF78
:104D440016C020A131A12017310781F49496ED916A
:104D5400FC91959757DD19F00995002311F4A1DF13
:104D640006C014D005D000E002AF03AF45DF61CE2A
:104D740003D020AF31AF089520AD31AD200F311FE6
:104D84000895080F191F02AF13AF0895FD0102AD76
:104D940013AD08950E94A720A4EFB0E20091312141
:104DA400089529D096D001FD02C083D099F402E081
:104DB4000093CC040091C5042FD0008105FF05C0E9
:104DC4002BD000E206938BDF05C000E826D000E27A
:104DD400069321DF0CCF8FBF099119912991399145
:104DE4004991599169917991099019902990399033
:104DF400E991F991C5CA8A93FA93EA933A922A926D
:104E04001A920A927A936A935A934A933A932A93F8
:104E14001A930A938FB7089500E092DEF80108957B
:104E24009A938A93BBDF002331F0033011F00430EE
:104E340009F4E9DE32DF23DE86819781089709F5DC
:104E440048E050E024E735E20AE011E2F2DAE8EC67
:104E5400F4E018D017D079DC002311F422DF11C05C
:104E640071DC07FF05C011D002E005AFD4DE09C034
:104E740015DF012B11F421DF04C007D001E005AFD9
:104E8400BBDEF3CA0081006241CA00E000AF01AF9B
:104E940002AF03AF08951DD001FD0AC00AD009F086
:104EA40008957CDF013009F408CF043009F4FCDEF6
:104EB400089530D03ACD0DD001FD0AC0FADF09F0D3
:104EC40008956CDF023009F494CE033009F4ECDE6B
:104ED40008950091CC040895EBEC19D002FF08C0AA
:104EE400F093CA040091002106FF0BC0D4DF09C06F
:104EF400008101FF07C002E006D00091F82006FD02
:104F0400DADF0ECD42CC0093CA040895E0ECF4E05D
:104F140000810895DEDF00FF38CC01E00093CC046B
:104F24006FDE00E80693D8DE00E8069301E0EBDFCD
:104F340067DE00E1069374DFF3CCCC04E8200000C4
:104F4400760072204A4F04000000400000112174D2
:104F540021000400008A2116220300000017220009
:104F640000040000001D22000000000000000000FA
:104F74000075207D209520952085208D20952095F5
:104F84002095209520952095209520952095209575
:104F94002095200009021200010100C0320904001A
:104FA4000000FF0000001201000200000040EB03BB
:0C4FB400E32F04000000000104030904C6
:0400000300004000B9
:00000001FF
